{
  "contractName": "OraclesLinker",
  "abi": [
    {
      "inputs": [
        {
          "internalType": "address",
          "name": "_link",
          "type": "address"
        }
      ],
      "payable": false,
      "stateMutability": "nonpayable",
      "type": "constructor"
    },
    {
      "anonymous": false,
      "inputs": [
        {
          "indexed": true,
          "internalType": "bytes32",
          "name": "id",
          "type": "bytes32"
        }
      ],
      "name": "ChainlinkCancelled",
      "type": "event"
    },
    {
      "anonymous": false,
      "inputs": [
        {
          "indexed": true,
          "internalType": "bytes32",
          "name": "id",
          "type": "bytes32"
        }
      ],
      "name": "ChainlinkFulfilled",
      "type": "event"
    },
    {
      "anonymous": false,
      "inputs": [
        {
          "indexed": true,
          "internalType": "bytes32",
          "name": "id",
          "type": "bytes32"
        }
      ],
      "name": "ChainlinkRequested",
      "type": "event"
    },
    {
      "anonymous": false,
      "inputs": [
        {
          "indexed": true,
          "internalType": "bytes32",
          "name": "saId",
          "type": "bytes32"
        },
        {
          "indexed": false,
          "internalType": "uint256",
          "name": "payment",
          "type": "uint256"
        },
        {
          "indexed": false,
          "internalType": "uint256",
          "name": "minresponses",
          "type": "uint256"
        }
      ],
      "name": "NewServiceAgreement",
      "type": "event"
    },
    {
      "anonymous": false,
      "inputs": [
        {
          "indexed": true,
          "internalType": "address",
          "name": "previousOwner",
          "type": "address"
        },
        {
          "indexed": true,
          "internalType": "address",
          "name": "newOwner",
          "type": "address"
        }
      ],
      "name": "OwnershipTransferred",
      "type": "event"
    },
    {
      "anonymous": false,
      "inputs": [
        {
          "indexed": true,
          "internalType": "bytes32",
          "name": "saId",
          "type": "bytes32"
        },
        {
          "indexed": true,
          "internalType": "bytes32",
          "name": "requestId",
          "type": "bytes32"
        },
        {
          "indexed": false,
          "internalType": "int256",
          "name": "answer",
          "type": "int256"
        }
      ],
      "name": "ServiceAgreementAnswerUpdated",
      "type": "event"
    },
    {
      "anonymous": false,
      "inputs": [
        {
          "indexed": true,
          "internalType": "bytes32",
          "name": "saId",
          "type": "bytes32"
        }
      ],
      "name": "ServiceAgreementDeleted",
      "type": "event"
    },
    {
      "anonymous": false,
      "inputs": [
        {
          "indexed": true,
          "internalType": "bytes32",
          "name": "saId",
          "type": "bytes32"
        },
        {
          "indexed": true,
          "internalType": "bytes32",
          "name": "requestId",
          "type": "bytes32"
        },
        {
          "indexed": false,
          "internalType": "uint256",
          "name": "payment",
          "type": "uint256"
        }
      ],
      "name": "ServiceAgreementRequested",
      "type": "event"
    },
    {
      "anonymous": false,
      "inputs": [
        {
          "indexed": true,
          "internalType": "bytes32",
          "name": "saId",
          "type": "bytes32"
        },
        {
          "indexed": true,
          "internalType": "bytes32",
          "name": "requestId",
          "type": "bytes32"
        },
        {
          "indexed": true,
          "internalType": "address",
          "name": "oracle",
          "type": "address"
        },
        {
          "indexed": false,
          "internalType": "int256",
          "name": "answer",
          "type": "int256"
        }
      ],
      "name": "ServiceAgreementResponseReceived",
      "type": "event"
    },
    {
      "constant": true,
      "inputs": [],
      "name": "isOwner",
      "outputs": [
        {
          "internalType": "bool",
          "name": "",
          "type": "bool"
        }
      ],
      "payable": false,
      "stateMutability": "view",
      "type": "function"
    },
    {
      "constant": false,
      "inputs": [
        {
          "internalType": "address",
          "name": "_sender",
          "type": "address"
        },
        {
          "internalType": "uint256",
          "name": "_amount",
          "type": "uint256"
        },
        {
          "internalType": "bytes",
          "name": "_data",
          "type": "bytes"
        }
      ],
      "name": "onTokenTransfer",
      "outputs": [],
      "payable": false,
      "stateMutability": "nonpayable",
      "type": "function"
    },
    {
      "constant": true,
      "inputs": [],
      "name": "owner",
      "outputs": [
        {
          "internalType": "address",
          "name": "",
          "type": "address"
        }
      ],
      "payable": false,
      "stateMutability": "view",
      "type": "function"
    },
    {
      "constant": false,
      "inputs": [],
      "name": "renounceOwnership",
      "outputs": [],
      "payable": false,
      "stateMutability": "nonpayable",
      "type": "function"
    },
    {
      "constant": false,
      "inputs": [
        {
          "internalType": "address",
          "name": "newOwner",
          "type": "address"
        }
      ],
      "name": "transferOwnership",
      "outputs": [],
      "payable": false,
      "stateMutability": "nonpayable",
      "type": "function"
    },
    {
      "constant": false,
      "inputs": [
        {
          "internalType": "uint256",
          "name": "_minResponses",
          "type": "uint256"
        },
        {
          "internalType": "address[]",
          "name": "_oracles",
          "type": "address[]"
        },
        {
          "internalType": "bytes32[]",
          "name": "_jobIds",
          "type": "bytes32[]"
        },
        {
          "internalType": "uint256[]",
          "name": "_payments",
          "type": "uint256[]"
        }
      ],
      "name": "createServiceAgreement",
      "outputs": [
        {
          "internalType": "bytes32",
          "name": "saId",
          "type": "bytes32"
        }
      ],
      "payable": false,
      "stateMutability": "nonpayable",
      "type": "function"
    },
    {
      "constant": true,
      "inputs": [
        {
          "internalType": "bytes32",
          "name": "_saId",
          "type": "bytes32"
        }
      ],
      "name": "getServiceAgreement",
      "outputs": [
        {
          "internalType": "uint256",
          "name": "totalPayment",
          "type": "uint256"
        },
        {
          "internalType": "uint256",
          "name": "minResponses",
          "type": "uint256"
        },
        {
          "internalType": "uint256",
          "name": "activeRequests",
          "type": "uint256"
        },
        {
          "internalType": "address[]",
          "name": "oracles",
          "type": "address[]"
        },
        {
          "internalType": "bytes32[]",
          "name": "jobIds",
          "type": "bytes32[]"
        },
        {
          "internalType": "uint256[]",
          "name": "payments",
          "type": "uint256[]"
        }
      ],
      "payable": false,
      "stateMutability": "view",
      "type": "function"
    },
    {
      "constant": false,
      "inputs": [
        {
          "internalType": "bytes32",
          "name": "_saId",
          "type": "bytes32"
        }
      ],
      "name": "deleteServiceAgreement",
      "outputs": [],
      "payable": false,
      "stateMutability": "nonpayable",
      "type": "function"
    },
    {
      "constant": true,
      "inputs": [],
      "name": "getChainlinkToken",
      "outputs": [
        {
          "internalType": "address",
          "name": "",
          "type": "address"
        }
      ],
      "payable": false,
      "stateMutability": "view",
      "type": "function"
    },
    {
      "constant": false,
      "inputs": [
        {
          "internalType": "address",
          "name": "_sender",
          "type": "address"
        },
        {
          "internalType": "uint256",
          "name": "_payment",
          "type": "uint256"
        },
        {
          "internalType": "bytes32",
          "name": "_saId",
          "type": "bytes32"
        },
        {
          "internalType": "address",
          "name": "_callbackAddress",
          "type": "address"
        },
        {
          "internalType": "bytes4",
          "name": "_callbackFunctionId",
          "type": "bytes4"
        },
        {
          "internalType": "uint256",
          "name": "_nonce",
          "type": "uint256"
        },
        {
          "internalType": "uint256",
          "name": "",
          "type": "uint256"
        },
        {
          "internalType": "bytes",
          "name": "_data",
          "type": "bytes"
        }
      ],
      "name": "oracleRequest",
      "outputs": [],
      "payable": false,
      "stateMutability": "nonpayable",
      "type": "function"
    },
    {
      "constant": false,
      "inputs": [
        {
          "internalType": "bytes32",
          "name": "_requestId",
          "type": "bytes32"
        },
        {
          "internalType": "int256",
          "name": "_data",
          "type": "int256"
        }
      ],
      "name": "chainlinkCallback",
      "outputs": [
        {
          "internalType": "bool",
          "name": "",
          "type": "bool"
        }
      ],
      "payable": false,
      "stateMutability": "nonpayable",
      "type": "function"
    },
    {
      "constant": false,
      "inputs": [],
      "name": "withdrawLink",
      "outputs": [],
      "payable": false,
      "stateMutability": "nonpayable",
      "type": "function"
    },
    {
      "constant": false,
      "inputs": [
        {
          "internalType": "bytes32",
          "name": "_requestId",
          "type": "bytes32"
        },
        {
          "internalType": "uint256",
          "name": "_payment",
          "type": "uint256"
        },
        {
          "internalType": "bytes4",
          "name": "_callbackFunctionId",
          "type": "bytes4"
        },
        {
          "internalType": "uint256",
          "name": "_expiration",
          "type": "uint256"
        }
      ],
      "name": "cancelOracleRequest",
      "outputs": [],
      "payable": false,
      "stateMutability": "nonpayable",
      "type": "function"
    }
  ],
  "bytecode": "0x608060405260016004553480156200001657600080fd5b506040516200412638038062004126833981810160405260208110156200003c57600080fd5b810190808051906020019092919050505060006200005f6200016360201b60201c565b905080600660006101000a81548173ffffffffffffffffffffffffffffffffffffffff021916908373ffffffffffffffffffffffffffffffffffffffff1602179055508073ffffffffffffffffffffffffffffffffffffffff16600073ffffffffffffffffffffffffffffffffffffffff167f8be0079c531659141344cd1fd0a4f28419497f9722a3daafe3b4186f6b6457e060405160405180910390a350600073ffffffffffffffffffffffffffffffffffffffff168173ffffffffffffffffffffffffffffffffffffffff1614156200014a57620001446200016b60201b60201c565b6200015c565b6200015b816200021560201b60201c565b5b5062000259565b600033905090565b6200021373c89bd4e1632d3a43cb03aaad5262cbe4038bc57173ffffffffffffffffffffffffffffffffffffffff166338cc48316040518163ffffffff1660e01b815260040160206040518083038186803b158015620001ca57600080fd5b505afa158015620001df573d6000803e3d6000fd5b505050506040513d6020811015620001f657600080fd5b81019080805190602001909291905050506200021560201b60201c565b565b80600260006101000a81548173ffffffffffffffffffffffffffffffffffffffff021916908373ffffffffffffffffffffffffffffffffffffffff16021790555050565b613ebd80620002696000396000f3fe608060405234801561001057600080fd5b50600436106100cf5760003560e01c8063834b55e01161008c5780638f32d59b116100665780638f32d59b146104b1578063a4c0ed36146104d3578063af52c981146105b8578063f2fde38b146106e0576100cf565b8063834b55e01461031c5780638da5cb5b1461045d5780638dc654a2146104a7576100cf565b8063165d35e1146100d45780633a4a660b1461011e578063404299461461014c5780636a9705b4146102575780636ee4d553146102a7578063715018a614610312575b600080fd5b6100dc610724565b604051808273ffffffffffffffffffffffffffffffffffffffff1673ffffffffffffffffffffffffffffffffffffffff16815260200191505060405180910390f35b61014a6004803603602081101561013457600080fd5b8101908080359060200190929190505050610733565b005b610255600480360361010081101561016357600080fd5b81019080803573ffffffffffffffffffffffffffffffffffffffff1690602001909291908035906020019092919080359060200190929190803573ffffffffffffffffffffffffffffffffffffffff16906020019092919080357bffffffffffffffffffffffffffffffffffffffffffffffffffffffff1916906020019092919080359060200190929190803590602001909291908035906020019064010000000081111561021157600080fd5b82018360208201111561022357600080fd5b8035906020019184600183028401116401000000008311171561024557600080fd5b90919293919293905050506108c9565b005b61028d6004803603604081101561026d57600080fd5b810190808035906020019092919080359060200190929190505050610e15565b604051808215151515815260200191505060405180910390f35b610310600480360360808110156102bd57600080fd5b81019080803590602001909291908035906020019092919080357bffffffffffffffffffffffffffffffffffffffffffffffffffffffff1916906020019092919080359060200190929190505050611441565b005b61031a611891565b005b6104476004803603608081101561033257600080fd5b81019080803590602001909291908035906020019064010000000081111561035957600080fd5b82018360208201111561036b57600080fd5b8035906020019184602083028401116401000000008311171561038d57600080fd5b9091929391929390803590602001906401000000008111156103ae57600080fd5b8201836020820111156103c057600080fd5b803590602001918460208302840111640100000000831117156103e257600080fd5b90919293919293908035906020019064010000000081111561040357600080fd5b82018360208201111561041557600080fd5b8035906020019184602083028401116401000000008311171561043757600080fd5b90919293919293905050506119cc565b6040518082815260200191505060405180910390f35b610465611e92565b604051808273ffffffffffffffffffffffffffffffffffffffff1673ffffffffffffffffffffffffffffffffffffffff16815260200191505060405180910390f35b6104af611ebc565b005b6104b9612130565b604051808215151515815260200191505060405180910390f35b6105b6600480360360608110156104e957600080fd5b81019080803573ffffffffffffffffffffffffffffffffffffffff169060200190929190803590602001909291908035906020019064010000000081111561053057600080fd5b82018360208201111561054257600080fd5b8035906020019184600183028401116401000000008311171561056457600080fd5b91908080601f016020809104026020016040519081016040528093929190818152602001838380828437600081840152601f19601f82011690508083019250505050505050919291929050505061218f565b005b6105e4600480360360208110156105ce57600080fd5b81019080803590602001909291905050506124b8565b60405180878152602001868152602001858152602001806020018060200180602001848103845287818151815260200191508051906020019060200280838360005b83811015610641578082015181840152602081019050610626565b50505050905001848103835286818151815260200191508051906020019060200280838360005b83811015610683578082015181840152602081019050610668565b50505050905001848103825285818151815260200191508051906020019060200280838360005b838110156106c55780820151818401526020810190506106aa565b50505050905001995050505050505050505060405180910390f35b610722600480360360208110156106f657600080fd5b81019080803573ffffffffffffffffffffffffffffffffffffffff16906020019092919050505061268a565b005b600061072e612710565b905090565b61073b612130565b6107ad576040517f08c379a00000000000000000000000000000000000000000000000000000000081526004018080602001828103825260208152602001807f4f776e61626c653a2063616c6c6572206973206e6f7420746865206f776e657281525060200191505060405180910390fd5b80600060086000838152602001908152602001600020600201541461083a576040517f08c379a000000000000000000000000000000000000000000000000000000000815260040180806020018281038252601a8152602001807f43616e6e6f742064656c657465207768696c652061637469766500000000000081525060200191505060405180910390fd5b60086000838152602001908152602001600020600080820160009055600182016000905560028201600090556003820160006108769190613a52565b6004820160006108869190613a73565b6005820160006108969190613a94565b5050817f227c06e698a75d1029f6c20a48aca0d218abffbdf5ce0ebd117d2de93cfc6db260405160405180910390a25050565b6108d1610724565b73ffffffffffffffffffffffffffffffffffffffff163373ffffffffffffffffffffffffffffffffffffffff1614610971576040517f08c379a00000000000000000000000000000000000000000000000000000000081526004018080602001828103825260138152602001807f4d75737420757365204c494e4b20746f6b656e0000000000000000000000000081525060200191505060405180910390fd5b8561097a612710565b73ffffffffffffffffffffffffffffffffffffffff168173ffffffffffffffffffffffffffffffffffffffff161415610a1b576040517f08c379a00000000000000000000000000000000000000000000000000000000081526004018080602001828103825260178152602001807f43616e6e6f742063616c6c6261636b20746f204c494e4b00000000000000000081525060200191505060405180910390fd5b6000600860008a8152602001908152602001600020600001549050808a1015610aac576040517f08c379a00000000000000000000000000000000000000000000000000000000081526004018080602001828103825260148152602001807f496e73756666696369656e74207061796d656e7400000000000000000000000081525060200191505060405180910390fd5b60008b87604051602001808373ffffffffffffffffffffffffffffffffffffffff1673ffffffffffffffffffffffffffffffffffffffff1660601b815260140182815260200192505050604051602081830303815290604052805190602001209050600073ffffffffffffffffffffffffffffffffffffffff16600a600083815260200190815260200160002060000160049054906101000a900473ffffffffffffffffffffffffffffffffffffffff1673ffffffffffffffffffffffffffffffffffffffff1614610be6576040517f08c379a00000000000000000000000000000000000000000000000000000000081526004018080602001828103825260148152602001807f4e6f6e636520616c726561647920696e2d75736500000000000000000000000081525060200191505060405180910390fd5b87600a600083815260200190815260200160002060000160006101000a81548163ffffffff021916908360e01c021790555088600a600083815260200190815260200160002060010160006101000a81548173ffffffffffffffffffffffffffffffffffffffff021916908373ffffffffffffffffffffffffffffffffffffffff1602179055508b600a600083815260200190815260200160002060000160046101000a81548173ffffffffffffffffffffffffffffffffffffffff021916908373ffffffffffffffffffffffffffffffffffffffff160217905550610d118a8287878080601f016020809104026020016040519081016040528093929190818152602001838380828437600081840152601f19601f8201169050808301925050505050505061273a565b818b1115610e07576000610d2e838d612a9590919063ffffffff16565b90506000610d3a612710565b90508073ffffffffffffffffffffffffffffffffffffffff1663a9059cbb8f846040518363ffffffff1660e01b8152600401808373ffffffffffffffffffffffffffffffffffffffff1673ffffffffffffffffffffffffffffffffffffffff16815260200182815260200192505050602060405180830381600087803b158015610dc357600080fd5b505af1158015610dd7573d6000803e3d6000fd5b505050506040513d6020811015610ded57600080fd5b8101908080519060200190929190505050610e0457fe5b50505b505050505050505050505050565b6000826005600082815260200190815260200160002060009054906101000a900473ffffffffffffffffffffffffffffffffffffffff1673ffffffffffffffffffffffffffffffffffffffff163373ffffffffffffffffffffffffffffffffffffffff1614610ecf576040517f08c379a0000000000000000000000000000000000000000000000000000000008152600401808060200182810382526028815260200180613e616028913960400191505060405180910390fd5b6005600082815260200190815260200160002060006101000a81549073ffffffffffffffffffffffffffffffffffffffff0219169055807f7cc135e0cebb02c3480ae5d74d377283180a2601f8f644edf7987b009316c63a60405160405180910390a2600060086000600960008881526020019081526020016000205481526020019081526020016000206001015490506000600b6000878152602001908152602001600020549050600060096000888152602001908152602001600020549050600b60008881526020019081526020016000206000905560096000888152602001908152602001600020600090553373ffffffffffffffffffffffffffffffffffffffff1682827f6bd4bffa5426494ba16814dba4b1994c92f88f7664ad231cf8aa811fff6e925e896040518082815260200191505060405180910390a482600a6000848152602001908152602001600020600201879080600181540180825580915050906001820390600052602060002001600090919290919091505514156114325761107e60016008600084815260200190815260200160002060020154612a9590919063ffffffff16565b60086000838152602001908152602001600020600201819055506110a0613ab5565b600a60008481526020019081526020016000206040518060800160405290816000820160009054906101000a900460e01b7bffffffffffffffffffffffffffffffffffffffffffffffffffffffff19167bffffffffffffffffffffffffffffffffffffffffffffffffffffffff191681526020016000820160049054906101000a900473ffffffffffffffffffffffffffffffffffffffff1673ffffffffffffffffffffffffffffffffffffffff1673ffffffffffffffffffffffffffffffffffffffff1681526020016001820160009054906101000a900473ffffffffffffffffffffffffffffffffffffffff1673ffffffffffffffffffffffffffffffffffffffff1673ffffffffffffffffffffffffffffffffffffffff1681526020016002820180548060200260200160405190810160405280929190818152602001828054801561120e57602002820191906000526020600020905b8154815260200190600101908083116111fa575b5050505050815250509050600a6000848152602001908152602001600020600080820160006101000a81549063ffffffff02191690556000820160046101000a81549073ffffffffffffffffffffffffffffffffffffffff02191690556001820160006101000a81549073ffffffffffffffffffffffffffffffffffffffff02191690556002820160006112a29190613b28565b505060006112b38260600151612b1e565b905083837fe991444bc589ce1a82e7cbe4e5ebaa8aaa2a5c44964bd32d2af07dd846a638ba836040518082815260200191505060405180910390a36000826040015173ffffffffffffffffffffffffffffffffffffffff16836000015186846040516024018083815260200182815260200192505050604051602081830303815290604052907bffffffffffffffffffffffffffffffffffffffffffffffffffffffff19166020820180517bffffffffffffffffffffffffffffffffffffffffffffffffffffffff83818316178352505050506040518082805190602001908083835b602083106113b95780518252602082019150602081019050602083039250611396565b6001836020036101000a0380198251168184511680821785525050505050509050019150506000604051808303816000865af19150503d806000811461141b576040519150601f19603f3d011682016040523d82523d6000602084013e611420565b606091505b5050905080975050505050505061143a565b600194505050505b5092915050565b6000600b6000868152602001908152602001600020549050600b600086815260200190815260200160002060009055600960008681526020019081526020016000206000905561148f613ab5565b600a60008381526020019081526020016000206040518060800160405290816000820160009054906101000a900460e01b7bffffffffffffffffffffffffffffffffffffffffffffffffffffffff19167bffffffffffffffffffffffffffffffffffffffffffffffffffffffff191681526020016000820160049054906101000a900473ffffffffffffffffffffffffffffffffffffffff1673ffffffffffffffffffffffffffffffffffffffff1673ffffffffffffffffffffffffffffffffffffffff1681526020016001820160009054906101000a900473ffffffffffffffffffffffffffffffffffffffff1673ffffffffffffffffffffffffffffffffffffffff1673ffffffffffffffffffffffffffffffffffffffff168152602001600282018054806020026020016040519081016040528092919081815260200182805480156115fd57602002820191906000526020600020905b8154815260200190600101908083116115e9575b50505050508152505090503373ffffffffffffffffffffffffffffffffffffffff16816020015173ffffffffffffffffffffffffffffffffffffffff16146116ad576040517f08c379a00000000000000000000000000000000000000000000000000000000081526004018080602001828103825260198152602001807f4f6e6c79207265717565737465722063616e2063616e63656c0000000000000081525060200191505060405180910390fd5b600a6000838152602001908152602001600020600080820160006101000a81549063ffffffff02191690556000820160046101000a81549073ffffffffffffffffffffffffffffffffffffffff02191690556001820160006101000a81549073ffffffffffffffffffffffffffffffffffffffff02191690556002820160006117369190613b28565b505061174486868686612c17565b600061174e612710565b90508073ffffffffffffffffffffffffffffffffffffffff1663a9059cbb8360200151886040518363ffffffff1660e01b8152600401808373ffffffffffffffffffffffffffffffffffffffff1673ffffffffffffffffffffffffffffffffffffffff16815260200182815260200192505050602060405180830381600087803b1580156117db57600080fd5b505af11580156117ef573d6000803e3d6000fd5b505050506040513d602081101561180557600080fd5b8101908080519060200190929190505050611888576040517f08c379a00000000000000000000000000000000000000000000000000000000081526004018080602001828103825260128152602001807f556e61626c6520746f207472616e73666572000000000000000000000000000081525060200191505060405180910390fd5b50505050505050565b611899612130565b61190b576040517f08c379a00000000000000000000000000000000000000000000000000000000081526004018080602001828103825260208152602001807f4f776e61626c653a2063616c6c6572206973206e6f7420746865206f776e657281525060200191505060405180910390fd5b600073ffffffffffffffffffffffffffffffffffffffff16600660009054906101000a900473ffffffffffffffffffffffffffffffffffffffff1673ffffffffffffffffffffffffffffffffffffffff167f8be0079c531659141344cd1fd0a4f28419497f9722a3daafe3b4186f6b6457e060405160405180910390a36000600660006101000a81548173ffffffffffffffffffffffffffffffffffffffff021916908373ffffffffffffffffffffffffffffffffffffffff160217905550565b60006119d6612130565b611a48576040517f08c379a00000000000000000000000000000000000000000000000000000000081526004018080602001828103825260208152602001807f4f776e61626c653a2063616c6c6572206973206e6f7420746865206f776e657281525060200191505060405180910390fd5b60008811611abe576040517f08c379a00000000000000000000000000000000000000000000000000000000081526004018080602001828103825260198152602001807f4d696e20726573706f6e736573206d757374206265203e20300000000000000081525060200191505060405180910390fd5b8484905087879050148015611ad857508282905087879050145b611b4a576040517f08c379a000000000000000000000000000000000000000000000000000000000815260040180806020018281038252600c8152602001807f556e6d6574206c656e677468000000000000000000000000000000000000000081525060200191505060405180910390fd5b602d878790501115611bc4576040517f08c379a00000000000000000000000000000000000000000000000000000000081526004018080602001828103825260208152602001807f43616e6e6f742068617665206d6f7265207468616e203435206f7261636c657381525060200191505060405180910390fd5b87878790501015611c3d576040517f08c379a00000000000000000000000000000000000000000000000000000000081526004018080602001828103825260158152602001807f496e76616c6964206d696e20726573706f6e736573000000000000000000000081525060200191505060405180910390fd5b600080600090505b84849050811015611c8457611c75858583818110611c5f57fe5b9050602002013583612d7a90919063ffffffff16565b91508080600101915050611c45565b506007544260405160200180838152602001828152602001925050506040516020818303038152906040528051906020012091506007600081548092919060010191905055506040518060c001604052808281526020018a815260200160008152602001898980806020026020016040519081016040528093929190818152602001838360200280828437600081840152601f19601f820116905080830192505050505050508152602001878780806020026020016040519081016040528093929190818152602001838360200280828437600081840152601f19601f820116905080830192505050505050508152602001858580806020026020016040519081016040528093929190818152602001838360200280828437600081840152601f19601f82011690508083019250505050505050815250600860008481526020019081526020016000206000820151816000015560208201518160010155604082015181600201556060820151816003019080519060200190611e08929190613b49565b506080820151816004019080519060200190611e25929190613bd3565b5060a0820151816005019080519060200190611e42929190613c20565b50905050817f1df950b8dca286fff2ebb83642851b5a9db00ff4bc87815828e845b45d183eaf828b604051808381526020018281526020019250505060405180910390a250979650505050505050565b6000600660009054906101000a900473ffffffffffffffffffffffffffffffffffffffff16905090565b611ec4612130565b611f36576040517f08c379a00000000000000000000000000000000000000000000000000000000081526004018080602001828103825260208152602001807f4f776e61626c653a2063616c6c6572206973206e6f7420746865206f776e657281525060200191505060405180910390fd5b6000611f40612710565b90508073ffffffffffffffffffffffffffffffffffffffff1663a9059cbb338373ffffffffffffffffffffffffffffffffffffffff166370a08231306040518263ffffffff1660e01b8152600401808273ffffffffffffffffffffffffffffffffffffffff1673ffffffffffffffffffffffffffffffffffffffff16815260200191505060206040518083038186803b158015611fdc57600080fd5b505afa158015611ff0573d6000803e3d6000fd5b505050506040513d602081101561200657600080fd5b81019080805190602001909291905050506040518363ffffffff1660e01b8152600401808373ffffffffffffffffffffffffffffffffffffffff1673ffffffffffffffffffffffffffffffffffffffff16815260200182815260200192505050602060405180830381600087803b15801561208057600080fd5b505af1158015612094573d6000803e3d6000fd5b505050506040513d60208110156120aa57600080fd5b810190808051906020019092919050505061212d576040517f08c379a00000000000000000000000000000000000000000000000000000000081526004018080602001828103825260128152602001807f556e61626c6520746f207472616e73666572000000000000000000000000000081525060200191505060405180910390fd5b50565b6000600660009054906101000a900473ffffffffffffffffffffffffffffffffffffffff1673ffffffffffffffffffffffffffffffffffffffff16612173612e02565b73ffffffffffffffffffffffffffffffffffffffff1614905090565b612197610724565b73ffffffffffffffffffffffffffffffffffffffff163373ffffffffffffffffffffffffffffffffffffffff1614612237576040517f08c379a00000000000000000000000000000000000000000000000000000000081526004018080602001828103825260138152602001807f4d75737420757365204c494e4b20746f6b656e0000000000000000000000000081525060200191505060405180910390fd5b806002602002600401815110156122b6576040517f08c379a00000000000000000000000000000000000000000000000000000000081526004018080602001828103825260168152602001807f496e76616c69642072657175657374206c656e6774680000000000000000000081525060200191505060405180910390fd5b81600060208201519050634042994660e01b7bffffffffffffffffffffffffffffffffffffffffffffffffffffffff1916817bffffffffffffffffffffffffffffffffffffffffffffffffffffffff19161461237a576040517f08c379a000000000000000000000000000000000000000000000000000000000815260040180806020018281038252601e8152602001807f4d757374207573652077686974656c69737465642066756e6374696f6e73000081525060200191505060405180910390fd5b85602485015284604485015260003073ffffffffffffffffffffffffffffffffffffffff16856040518082805190602001908083835b602083106123d357805182526020820191506020810190506020830392506123b0565b6001836020036101000a038019825116818451168082178552505050505050905001915050600060405180830381855af49150503d8060008114612433576040519150601f19603f3d011682016040523d82523d6000602084013e612438565b606091505b50509050806124af576040517f08c379a00000000000000000000000000000000000000000000000000000000081526004018080602001828103825260188152602001807f556e61626c6520746f206372656174652072657175657374000000000000000081525060200191505060405180910390fd5b50505050505050565b6000806000606080606060086000888152602001908152602001600020600001546008600089815260200190815260200160002060010154600860008a815260200190815260200160002060020154600860008b8152602001908152602001600020600301600860008c8152602001908152602001600020600401600860008d8152602001908152602001600020600501828054806020026020016040519081016040528092919081815260200182805480156125ca57602002820191906000526020600020905b8160009054906101000a900473ffffffffffffffffffffffffffffffffffffffff1673ffffffffffffffffffffffffffffffffffffffff1681526020019060010190808311612580575b505050505092508180548060200260200160405190810160405280929190818152602001828054801561261c57602002820191906000526020600020905b815481526020019060010190808311612608575b505050505091508080548060200260200160405190810160405280929190818152602001828054801561266e57602002820191906000526020600020905b81548152602001906001019080831161265a575b5050505050905095509550955095509550955091939550919395565b612692612130565b612704576040517f08c379a00000000000000000000000000000000000000000000000000000000081526004018080602001828103825260208152602001807f4f776e61626c653a2063616c6c6572206973206e6f7420746865206f776e657281525060200191505060405180910390fd5b61270d81612e0a565b50565b6000600260009054906101000a900473ffffffffffffffffffffffffffffffffffffffff16905090565b612742613c6d565b600860008581526020019081526020016000206040518060c00160405290816000820154815260200160018201548152602001600282015481526020016003820180548060200260200160405190810160405280929190818152602001828054801561280357602002820191906000526020600020905b8160009054906101000a900473ffffffffffffffffffffffffffffffffffffffff1673ffffffffffffffffffffffffffffffffffffffff16815260200190600101908083116127b9575b505050505081526020016004820180548060200260200160405190810160405280929190818152602001828054801561285b57602002820191906000526020600020905b815481526020019060010190808311612847575b50505050508152602001600582018054806020026020016040519081016040528092919081815260200182805480156128b357602002820191906000526020600020905b81548152602001906001019080831161289f575b50505050508152505090506000816020015111612938576040517f08c379a00000000000000000000000000000000000000000000000000000000081526004018080602001828103825260198152602001807f496e76616c696420736572766963652061677265656d656e740000000000000081525060200191505060405180910390fd5b612940613ca3565b600061296c60016008600089815260200190815260200160002060020154612d7a90919063ffffffff16565b600860008881526020019081526020016000206002018190555084867f0d3e7811af83862cbc3778c66d787596cdb580e0dbc448d99f21c865770a843285600001516040518082815260200191505060405180910390a360008090505b836060015151811015612a8c576129ff846080015182815181106129e957fe5b602002602001015130636a9705b460e01b612f50565b9250612a148584612f8190919063ffffffff16565b612a4d84606001518281518110612a2757fe5b6020026020010151848660a001518481518110612a4057fe5b6020026020010151612fa4565b915085600b60008481526020019081526020016000208190555086600960008481526020019081526020016000208190555080806001019150506129c9565b50505050505050565b600082821115612b0d576040517f08c379a000000000000000000000000000000000000000000000000000000000815260040180806020018281038252601e8152602001807f536166654d6174683a207375627472616374696f6e206f766572666c6f77000081525060200191505060405180910390fd5b600082840390508091505092915050565b600080825190506000612b3b60028361325c90919063ffffffff16565b9050600060028381612b4957fe5b061415612bf0576000612b64612b5e866132eb565b83613373565b90506000612b8586612b80600186612d7a90919063ffffffff16565b613373565b905060006002808381612b9457fe5b0760028581612b9f57fe5b070181612ba857fe5b059050612be481612bd660028581612bbc57fe5b0560028781612bc757fe5b0561358e90919063ffffffff16565b61358e90919063ffffffff16565b95505050505050612c12565b612c0d84612c08600184612d7a90919063ffffffff16565b613373565b925050505b919050565b60006005600086815260200190815260200160002060009054906101000a900473ffffffffffffffffffffffffffffffffffffffff1690506005600086815260200190815260200160002060006101000a81549073ffffffffffffffffffffffffffffffffffffffff0219169055847fe1fe3afa0f7f761ff0a8b89086790efd5140d2907ebd5b7ff6bfcb5e075fd4c560405160405180910390a28073ffffffffffffffffffffffffffffffffffffffff16636ee4d553868686866040518563ffffffff1660e01b815260040180858152602001848152602001837bffffffffffffffffffffffffffffffffffffffffffffffffffffffff19167bffffffffffffffffffffffffffffffffffffffffffffffffffffffff19168152602001828152602001945050505050600060405180830381600087803b158015612d5b57600080fd5b505af1158015612d6f573d6000803e3d6000fd5b505050505050505050565b600080828401905083811015612df8576040517f08c379a000000000000000000000000000000000000000000000000000000000815260040180806020018281038252601b8152602001807f536166654d6174683a206164646974696f6e206f766572666c6f77000000000081525060200191505060405180910390fd5b8091505092915050565b600033905090565b600073ffffffffffffffffffffffffffffffffffffffff168173ffffffffffffffffffffffffffffffffffffffff161415612e90576040517f08c379a0000000000000000000000000000000000000000000000000000000008152600401808060200182810382526026815260200180613df76026913960400191505060405180910390fd5b8073ffffffffffffffffffffffffffffffffffffffff16600660009054906101000a900473ffffffffffffffffffffffffffffffffffffffff1673ffffffffffffffffffffffffffffffffffffffff167f8be0079c531659141344cd1fd0a4f28419497f9722a3daafe3b4186f6b6457e060405160405180910390a380600660006101000a81548173ffffffffffffffffffffffffffffffffffffffff021916908373ffffffffffffffffffffffffffffffffffffffff16021790555050565b612f58613ca3565b612f60613ca3565b612f778585858461361c909392919063ffffffff16565b9150509392505050565b612f90826080015182516136cc565b50612f9f826080015182613720565b505050565b600030600454604051602001808373ffffffffffffffffffffffffffffffffffffffff1673ffffffffffffffffffffffffffffffffffffffff1660601b815260140182815260200192505050604051602081830303815290604052805190602001209050600454836060018181525050836005600083815260200190815260200160002060006101000a81548173ffffffffffffffffffffffffffffffffffffffff021916908373ffffffffffffffffffffffffffffffffffffffff160217905550807fb5e6e01e79f91267dc17b4e6314d5d4d03593d2ceee0fbb452b750bd70ea5af960405160405180910390a2600260009054906101000a900473ffffffffffffffffffffffffffffffffffffffff1673ffffffffffffffffffffffffffffffffffffffff16634000aea085846130dc87613742565b6040518463ffffffff1660e01b8152600401808473ffffffffffffffffffffffffffffffffffffffff1673ffffffffffffffffffffffffffffffffffffffff16815260200183815260200180602001828103825283818151815260200191508051906020019080838360005b83811015613163578082015181840152602081019050613148565b50505050905090810190601f1680156131905780820380516001836020036101000a031916815260200191505b50945050505050602060405180830381600087803b1580156131b157600080fd5b505af11580156131c5573d6000803e3d6000fd5b505050506040513d60208110156131db57600080fd5b8101908080519060200190929190505050613241576040517f08c379a0000000000000000000000000000000000000000000000000000000008152600401808060200182810382526023815260200180613e1d6023913960400191505060405180910390fd5b60016004600082825401925050819055508090509392505050565b60008082116132d3576040517f08c379a000000000000000000000000000000000000000000000000000000000815260040180806020018281038252601a8152602001807f536166654d6174683a206469766973696f6e206279207a65726f00000000000081525060200191505060405180910390fd5b60008284816132de57fe5b0490508091505092915050565b606080825160405190808252806020026020018201604052801561331e5781602001602082028038833980820191505090505b50905060008090505b83518110156133695783818151811061333c57fe5b602002602001015182828151811061335057fe5b6020026020010181815250508080600101915050613327565b5080915050919050565b6000606083905060008390506000825190506060816040519080825280602002602001820160405280156133b65781602001602082028038833980820191505090505b5090506060826040519080825280602002602001820160405280156133ea5781602001602082028038833980820191505090505b5090506000806000805b60011561357e578861341060028961325c90919063ffffffff16565b8151811061341a57fe5b602002602001015191506000935060009250600090505b868110156134eb578189828151811061344657fe5b6020026020010151121561348d5788818151811061346057fe5b602002602001015186858151811061347457fe5b60200260200101818152505083806001019450506134de565b8189828151811061349a57fe5b602002602001015113156134dd578881815181106134b457fe5b60200260200101518584815181106134c857fe5b60200260200101818152505082806001019350505b5b8080600101915050613431565b83881161350c578396506134ff8987613949565b809750819a505050613579565b61351f8388612a9590919063ffffffff16565b8811156135675761354b61353c8489612a9590919063ffffffff16565b89612a9590919063ffffffff16565b975082965061355a8986613949565b809650819a505050613578565b819950505050505050505050613588565b5b6133f4565b5050505050505050505b92915050565b6000808284019050600083121580156135a75750838112155b806135bd57506000831280156135bc57508381125b5b613612576040517f08c379a0000000000000000000000000000000000000000000000000000000008152600401808060200182810382526021815260200180613e406021913960400191505060405180910390fd5b8091505092915050565b613624613ca3565b61363485608001516101006136cc565b508385600001818152505082856020019073ffffffffffffffffffffffffffffffffffffffff16908173ffffffffffffffffffffffffffffffffffffffff16815250508185604001907bffffffffffffffffffffffffffffffffffffffffffffffffffffffff191690817bffffffffffffffffffffffffffffffffffffffffffffffffffffffff191681525050849050949350505050565b6136d4613d10565b6000602083816136e057fe5b06146136f957602082816136f057fe5b06602003820191505b81836020018181525050604051808452600081528281016020016040525082905092915050565b613728613d10565b61373a83846000015151848551613959565b905092915050565b6060600360009054906101000a900473ffffffffffffffffffffffffffffffffffffffff1673ffffffffffffffffffffffffffffffffffffffff166340429946905060e01b60008084600001518560200151866040015187606001516001896080015160000151604051602401808973ffffffffffffffffffffffffffffffffffffffff1673ffffffffffffffffffffffffffffffffffffffff1681526020018881526020018781526020018673ffffffffffffffffffffffffffffffffffffffff1673ffffffffffffffffffffffffffffffffffffffff168152602001857bffffffffffffffffffffffffffffffffffffffffffffffffffffffff19167bffffffffffffffffffffffffffffffffffffffffffffffffffffffff1916815260200184815260200183815260200180602001828103825283818151815260200191508051906020019080838360005b838110156138ac578082015181840152602081019050613891565b50505050905090810190601f1680156138d95780820380516001836020036101000a031916815260200191505b509950505050505050505050604051602081830303815290604052907bffffffffffffffffffffffffffffffffffffffffffffffffffffffff19166020820180517bffffffffffffffffffffffffffffffffffffffffffffffffffffffff83818316178352505050509050919050565b6060808284915091509250929050565b613961613d10565b825182111561396f57600080fd5b8460200151828501111561399a576139998560026139938860200151888701613a12565b02613a2e565b5b6000808651805187602083010193508088870111156139b95787860182525b60208701925050505b602084106139e557805182526020820191506020810190506020840393506139c2565b60006001856020036101000a03905080198251168184511681811785525050879350505050949350505050565b600081831115613a2457829050613a28565b8190505b92915050565b606082600001519050613a4183836136cc565b50613a4c8382613720565b50505050565b5080546000825590600052602060002090810190613a709190613d2a565b50565b5080546000825590600052602060002090810190613a919190613d4f565b50565b5080546000825590600052602060002090810190613ab29190613d2a565b50565b604051806080016040528060007bffffffffffffffffffffffffffffffffffffffffffffffffffffffff19168152602001600073ffffffffffffffffffffffffffffffffffffffff168152602001600073ffffffffffffffffffffffffffffffffffffffff168152602001606081525090565b5080546000825590600052602060002090810190613b469190613d74565b50565b828054828255906000526020600020908101928215613bc2579160200282015b82811115613bc15782518260006101000a81548173ffffffffffffffffffffffffffffffffffffffff021916908373ffffffffffffffffffffffffffffffffffffffff16021790555091602001919060010190613b69565b5b509050613bcf9190613d99565b5090565b828054828255906000526020600020908101928215613c0f579160200282015b82811115613c0e578251825591602001919060010190613bf3565b5b509050613c1c9190613d4f565b5090565b828054828255906000526020600020908101928215613c5c579160200282015b82811115613c5b578251825591602001919060010190613c40565b5b509050613c699190613d2a565b5090565b6040518060c001604052806000815260200160008152602001600081526020016060815260200160608152602001606081525090565b6040518060a0016040528060008019168152602001600073ffffffffffffffffffffffffffffffffffffffff16815260200160007bffffffffffffffffffffffffffffffffffffffffffffffffffffffff1916815260200160008152602001613d0a613ddc565b81525090565b604051806040016040528060608152602001600081525090565b613d4c91905b80821115613d48576000816000905550600101613d30565b5090565b90565b613d7191905b80821115613d6d576000816000905550600101613d55565b5090565b90565b613d9691905b80821115613d92576000816000905550600101613d7a565b5090565b90565b613dd991905b80821115613dd557600081816101000a81549073ffffffffffffffffffffffffffffffffffffffff021916905550600101613d9f565b5090565b90565b60405180604001604052806060815260200160008152509056fe4f776e61626c653a206e6577206f776e657220697320746865207a65726f2061646472657373756e61626c6520746f207472616e73666572416e6443616c6c20746f206f7261636c655369676e6564536166654d6174683a206164646974696f6e206f766572666c6f77536f75726365206d75737420626520746865206f7261636c65206f66207468652072657175657374a265627a7a72315820020d420f4f336a946860eb323e4593479e9f2ecedf5fc416f6c478143c775f1464736f6c63430005110032",
  "source": "pragma solidity >=0.5.17;\n\nimport \"@chainlink/contracts/src/v0.5/ChainlinkClient.sol\";\nimport \"@chainlink/contracts/src/v0.5/LinkTokenReceiver.sol\";\nimport \"@chainlink/contracts/src/v0.5/Median.sol\";\nimport \"openzeppelin-solidity/contracts/ownership/Ownable.sol\";\n\n\n/**\n * @title PreCoordinator is a contract that builds on-chain service agreements\n * using the current architecture of 1 request to 1 oracle contract.\n * @dev This contract accepts requests as service agreement IDs and loops over\n * the corresponding list of oracles to create distinct requests to each one.\n */\ncontract OraclesLinker is\n    ChainlinkClient,\n    Ownable,\n    ChainlinkRequestInterface,\n    LinkTokenReceiver\n{\n    using SafeMath for uint256;\n\n    uint256 private constant MAX_ORACLE_COUNT = 45;\n\n    uint256 private globalNonce;\n\n    struct ServiceAgreement {\n        uint256 totalPayment;\n        uint256 minResponses;\n        uint256 activeRequests;\n        address[] oracles;\n        bytes32[] jobIds;\n        uint256[] payments;\n    }\n\n    struct Requester {\n        bytes4 callbackFunctionId;\n        address sender;\n        address callbackAddress;\n        int256[] responses;\n    }\n\n    // Service Agreement ID => ServiceAgreement\n    mapping(bytes32 => ServiceAgreement) internal serviceAgreements;\n    // Local Request ID => Service Agreement ID\n    mapping(bytes32 => bytes32) internal serviceAgreementRequests;\n    // Requester's Request ID => Requester\n    mapping(bytes32 => Requester) internal requesters;\n    // Local Request ID => Requester's Request ID\n    mapping(bytes32 => bytes32) internal requests;\n\n    event NewServiceAgreement(\n        bytes32 indexed saId,\n        uint256 payment,\n        uint256 minresponses\n    );\n    event ServiceAgreementRequested(\n        bytes32 indexed saId,\n        bytes32 indexed requestId,\n        uint256 payment\n    );\n    event ServiceAgreementResponseReceived(\n        bytes32 indexed saId,\n        bytes32 indexed requestId,\n        address indexed oracle,\n        int256 answer\n    );\n    event ServiceAgreementAnswerUpdated(\n        bytes32 indexed saId,\n        bytes32 indexed requestId,\n        int256 answer\n    );\n    event ServiceAgreementDeleted(bytes32 indexed saId);\n\n    /**\n     * @notice Deploy the contract with a specified address for the LINK\n     * and Oracle contract addresses\n     * @dev Sets the storage for the specified addresses\n     * @param _link The address of the LINK token contract\n     */\n    constructor(address _link) public {\n        if (_link == address(0)) {\n            setPublicChainlinkToken();\n        } else {\n            setChainlinkToken(_link);\n        }\n    }\n\n    /**\n     * @notice Allows the owner of the contract to create new service agreements\n     * with multiple oracles. Each oracle will have their own Job ID and can have\n     * their own payment amount.\n     * @dev The globalNonce keeps service agreement IDs unique. Assume one cannot\n     * create the max uint256 number of service agreements in the same block.\n     * @param _minResponses The minimum number of responses before the requesting\n     * contract is called with the response data.\n     * @param _oracles The list of oracle contract addresses.\n     * @param _jobIds The corresponding list of Job IDs.\n     * @param _payments The corresponding list of payment amounts.\n     */\n    function createServiceAgreement(\n        uint256 _minResponses,\n        address[] calldata _oracles,\n        bytes32[] calldata _jobIds,\n        uint256[] calldata _payments\n    ) external onlyOwner returns (bytes32 saId) {\n        require(_minResponses > 0, \"Min responses must be > 0\");\n        require(\n            _oracles.length == _jobIds.length &&\n                _oracles.length == _payments.length,\n            \"Unmet length\"\n        );\n        require(\n            _oracles.length <= MAX_ORACLE_COUNT,\n            \"Cannot have more than 45 oracles\"\n        );\n        require(_oracles.length >= _minResponses, \"Invalid min responses\");\n        uint256 totalPayment;\n        for (uint256 i = 0; i < _payments.length; i++) {\n            totalPayment = totalPayment.add(_payments[i]);\n        }\n        saId = keccak256(abi.encodePacked(globalNonce, now));\n        globalNonce++; // yes, let it overflow\n        serviceAgreements[saId] = ServiceAgreement(\n            totalPayment,\n            _minResponses,\n            0,\n            _oracles,\n            _jobIds,\n            _payments\n        );\n\n        emit NewServiceAgreement(saId, totalPayment, _minResponses);\n    }\n\n    /**\n     * @notice This is a helper function to retrieve the details of a service agreement\n     * by its given service agreement ID.\n     * @dev This function is used instead of the public mapping to return the values\n     * of the arrays: oracles, jobIds, and payments.\n     */\n    function getServiceAgreement(bytes32 _saId)\n        external\n        view\n        returns (\n            uint256 totalPayment,\n            uint256 minResponses,\n            uint256 activeRequests,\n            address[] memory oracles,\n            bytes32[] memory jobIds,\n            uint256[] memory payments\n        )\n    {\n        return (\n            serviceAgreements[_saId].totalPayment,\n            serviceAgreements[_saId].minResponses,\n            serviceAgreements[_saId].activeRequests,\n            serviceAgreements[_saId].oracles,\n            serviceAgreements[_saId].jobIds,\n            serviceAgreements[_saId].payments\n        );\n    }\n\n    /**\n     * @notice Deletes a service agreement from storage\n     * @dev Use this with caution since there may be responses waiting to come\n     * back for a service agreement. This can be monitored off-chain by looking\n     * for the ServiceAgreementRequested event.\n     * @param _saId The service agreement ID\n     */\n    function deleteServiceAgreement(bytes32 _saId)\n        external\n        onlyOwner\n        whenNotActive(_saId)\n    {\n        delete serviceAgreements[_saId];\n        emit ServiceAgreementDeleted(_saId);\n    }\n\n    /**\n     * @notice Returns the address of the LINK token\n     * @dev This is the public implementation for chainlinkTokenAddress, which is\n     * an internal method of the ChainlinkClient contract\n     */\n    function getChainlinkToken() public view returns (address) {\n        return chainlinkTokenAddress();\n    }\n\n    /**\n     * @notice Creates the Chainlink request\n     * @dev Stores the hash of the params as the on-chain commitment for the request.\n     * Emits OracleRequest event for the Chainlink node to detect.\n     * @param _sender The sender of the request\n     * @param _payment The amount of payment given (specified in wei)\n     * @param _saId The Job Specification ID\n     * @param _callbackAddress The callback address for the response\n     * @param _callbackFunctionId The callback function ID for the response\n     * @param _nonce The nonce sent by the requester\n     * @param _data The CBOR payload of the request\n     */\n    function oracleRequest(\n        address _sender,\n        uint256 _payment,\n        bytes32 _saId,\n        address _callbackAddress,\n        bytes4 _callbackFunctionId,\n        uint256 _nonce,\n        uint256,\n        bytes calldata _data\n    ) external onlyLINK checkCallbackAddress(_callbackAddress) {\n        uint256 totalPayment = serviceAgreements[_saId].totalPayment;\n        // this revert message does not bubble up\n        require(_payment >= totalPayment, \"Insufficient payment\");\n        bytes32 callbackRequestId = keccak256(\n            abi.encodePacked(_sender, _nonce)\n        );\n        require(\n            requesters[callbackRequestId].sender == address(0),\n            \"Nonce already in-use\"\n        );\n        requesters[callbackRequestId].callbackFunctionId = _callbackFunctionId;\n        requesters[callbackRequestId].callbackAddress = _callbackAddress;\n        requesters[callbackRequestId].sender = _sender;\n        createRequests(_saId, callbackRequestId, _data);\n        if (_payment > totalPayment) {\n            uint256 overage = _payment.sub(totalPayment);\n            LinkTokenInterface _link = LinkTokenInterface(\n                chainlinkTokenAddress()\n            );\n            assert(_link.transfer(_sender, overage));\n        }\n    }\n\n    /**\n     * @dev Creates Chainlink requests to each oracle in the service agreement with the\n     * same data payload supplied by the requester\n     * @param _saId The service agreement ID\n     * @param _incomingRequestId The requester-supplied request ID\n     * @param _data The data payload (request parameters) to send to each oracle\n     */\n    function createRequests(\n        bytes32 _saId,\n        bytes32 _incomingRequestId,\n        bytes memory _data\n    ) private {\n        ServiceAgreement memory sa = serviceAgreements[_saId];\n        require(sa.minResponses > 0, \"Invalid service agreement\");\n        Chainlink.Request memory request;\n        bytes32 outgoingRequestId;\n        serviceAgreements[_saId].activeRequests = serviceAgreements[_saId]\n            .activeRequests\n            .add(1);\n        emit ServiceAgreementRequested(\n            _saId,\n            _incomingRequestId,\n            sa.totalPayment\n        );\n        for (uint256 i = 0; i < sa.oracles.length; i++) {\n            request = buildChainlinkRequest(\n                sa.jobIds[i],\n                address(this),\n                this.chainlinkCallback.selector\n            );\n            request.setBuffer(_data);\n            outgoingRequestId = sendChainlinkRequestTo(\n                sa.oracles[i],\n                request,\n                sa.payments[i]\n            );\n            requests[outgoingRequestId] = _incomingRequestId;\n            serviceAgreementRequests[outgoingRequestId] = _saId;\n        }\n    }\n\n    /**\n     * @notice The fulfill method from requests created by this contract\n     * @dev The recordChainlinkFulfillment protects this function from being called\n     * by anyone other than the oracle address that the request was sent to\n     * @param _requestId The ID that was generated for the request\n     * @param _data The answer provided by the oracle\n     */\n    function chainlinkCallback(bytes32 _requestId, int256 _data)\n        external\n        recordChainlinkFulfillment(_requestId)\n        returns (bool)\n    {\n\n            uint256 minResponses\n         = serviceAgreements[serviceAgreementRequests[_requestId]].minResponses;\n        bytes32 cbRequestId = requests[_requestId];\n        bytes32 saId = serviceAgreementRequests[_requestId];\n        delete requests[_requestId];\n        delete serviceAgreementRequests[_requestId];\n        emit ServiceAgreementResponseReceived(\n            saId,\n            cbRequestId,\n            msg.sender,\n            _data\n        );\n        if (requesters[cbRequestId].responses.push(_data) == minResponses) {\n            serviceAgreements[saId].activeRequests = serviceAgreements[saId]\n                .activeRequests\n                .sub(1);\n            Requester memory req = requesters[cbRequestId];\n            delete requesters[cbRequestId];\n            int256 result = Median.calculate(req.responses);\n            emit ServiceAgreementAnswerUpdated(saId, cbRequestId, result);\n            // solhint-disable-next-line avoid-low-level-calls\n            (bool success, ) = req.callbackAddress.call(\n                abi.encodeWithSelector(\n                    req.callbackFunctionId,\n                    cbRequestId,\n                    result\n                )\n            );\n            return success;\n        }\n        return true;\n    }\n\n    /**\n     * @notice Allows the owner to withdraw any LINK balance on the contract\n     * @dev The only valid case for there to be remaining LINK on this contract\n     * is if a user accidentally sent LINK directly to this contract's address.\n     */\n    function withdrawLink() external onlyOwner {\n        LinkTokenInterface _link = LinkTokenInterface(chainlinkTokenAddress());\n        require(\n            _link.transfer(msg.sender, _link.balanceOf(address(this))),\n            \"Unable to transfer\"\n        );\n    }\n\n    /**\n     * @notice Call this method if no response is received within 5 minutes\n     * @param _requestId The ID that was generated for the request to cancel\n     * @param _payment The payment specified for the request to cancel\n     * @param _callbackFunctionId The bytes4 callback function ID specified for\n     * the request to cancel\n     * @param _expiration The expiration generated for the request to cancel\n     */\n    function cancelOracleRequest(\n        bytes32 _requestId,\n        uint256 _payment,\n        bytes4 _callbackFunctionId,\n        uint256 _expiration\n    ) external {\n        bytes32 cbRequestId = requests[_requestId];\n        delete requests[_requestId];\n        delete serviceAgreementRequests[_requestId];\n        Requester memory req = requesters[cbRequestId];\n        require(req.sender == msg.sender, \"Only requester can cancel\");\n        delete requesters[cbRequestId];\n        cancelChainlinkRequest(\n            _requestId,\n            _payment,\n            _callbackFunctionId,\n            _expiration\n        );\n        LinkTokenInterface _link = LinkTokenInterface(chainlinkTokenAddress());\n        require(_link.transfer(req.sender, _payment), \"Unable to transfer\");\n    }\n\n    /**\n     * @dev Reverts if the Service Agreement has active callbacks\n     * @param _saId The service agreement ID\n     */\n    modifier whenNotActive(bytes32 _saId) {\n        require(\n            serviceAgreements[_saId].activeRequests == 0,\n            \"Cannot delete while active\"\n        );\n        _;\n    }\n\n    /**\n     * @dev Reverts if the callback address is the LINK token\n     * @param _to The callback address\n     */\n    modifier checkCallbackAddress(address _to) {\n        require(_to != chainlinkTokenAddress(), \"Cannot callback to LINK\");\n        _;\n    }\n}\n",
  "sourcePath": "C:\\Users\\bened\\Desktop\\FHK\\Masterarbeit\\Prototype\\truffledrizzle\\contracts\\OraclesLinker.sol",
  "compiler": {
    "name": "solc",
    "version": "0.5.17+commit.d19bba13.Emscripten.clang"
  },
  "schemaVersion": "3.1.0",
  "updatedAt": "2020-05-13T13:30:00.637Z",
  "devdoc": {
    "details": "This contract accepts requests as service agreement IDs and loops over the corresponding list of oracles to create distinct requests to each one.",
    "methods": {
      "cancelOracleRequest(bytes32,uint256,bytes4,uint256)": {
        "params": {
          "_callbackFunctionId": "The bytes4 callback function ID specified for the request to cancel",
          "_expiration": "The expiration generated for the request to cancel",
          "_payment": "The payment specified for the request to cancel",
          "_requestId": "The ID that was generated for the request to cancel"
        }
      },
      "chainlinkCallback(bytes32,int256)": {
        "details": "The recordChainlinkFulfillment protects this function from being called by anyone other than the oracle address that the request was sent to",
        "params": {
          "_data": "The answer provided by the oracle",
          "_requestId": "The ID that was generated for the request"
        }
      },
      "constructor": {
        "details": "Sets the storage for the specified addresses",
        "params": {
          "_link": "The address of the LINK token contract"
        }
      },
      "createServiceAgreement(uint256,address[],bytes32[],uint256[])": {
        "details": "The globalNonce keeps service agreement IDs unique. Assume one cannot create the max uint256 number of service agreements in the same block.",
        "params": {
          "_jobIds": "The corresponding list of Job IDs.",
          "_minResponses": "The minimum number of responses before the requesting contract is called with the response data.",
          "_oracles": "The list of oracle contract addresses.",
          "_payments": "The corresponding list of payment amounts."
        }
      },
      "deleteServiceAgreement(bytes32)": {
        "details": "Use this with caution since there may be responses waiting to come back for a service agreement. This can be monitored off-chain by looking for the ServiceAgreementRequested event.",
        "params": {
          "_saId": "The service agreement ID"
        }
      },
      "getChainlinkToken()": {
        "details": "This is the public implementation for chainlinkTokenAddress, which is an internal method of the ChainlinkClient contract"
      },
      "getServiceAgreement(bytes32)": {
        "details": "This function is used instead of the public mapping to return the values of the arrays: oracles, jobIds, and payments."
      },
      "isOwner()": {
        "details": "Returns true if the caller is the current owner."
      },
      "onTokenTransfer(address,uint256,bytes)": {
        "details": "The data payload's first 2 words will be overwritten by the `_sender` and `_amount` values to ensure correctness. Calls oracleRequest.",
        "params": {
          "_amount": "Amount of LINK sent (specified in wei)",
          "_data": "Payload of the transaction",
          "_sender": "Address of the sender"
        }
      },
      "oracleRequest(address,uint256,bytes32,address,bytes4,uint256,uint256,bytes)": {
        "details": "Stores the hash of the params as the on-chain commitment for the request. Emits OracleRequest event for the Chainlink node to detect.",
        "params": {
          "_callbackAddress": "The callback address for the response",
          "_callbackFunctionId": "The callback function ID for the response",
          "_data": "The CBOR payload of the request",
          "_nonce": "The nonce sent by the requester",
          "_payment": "The amount of payment given (specified in wei)",
          "_saId": "The Job Specification ID",
          "_sender": "The sender of the request"
        }
      },
      "owner()": {
        "details": "Returns the address of the current owner."
      },
      "renounceOwnership()": {
        "details": "Leaves the contract without owner. It will not be possible to call `onlyOwner` functions anymore. Can only be called by the current owner.     * NOTE: Renouncing ownership will leave the contract without an owner, thereby removing any functionality that is only available to the owner."
      },
      "transferOwnership(address)": {
        "details": "Transfers ownership of the contract to a new account (`newOwner`). Can only be called by the current owner."
      },
      "withdrawLink()": {
        "details": "The only valid case for there to be remaining LINK on this contract is if a user accidentally sent LINK directly to this contract's address."
      }
    },
    "title": "PreCoordinator is a contract that builds on-chain service agreements using the current architecture of 1 request to 1 oracle contract."
  },
  "userdoc": {
    "methods": {
      "cancelOracleRequest(bytes32,uint256,bytes4,uint256)": {
        "notice": "Call this method if no response is received within 5 minutes"
      },
      "chainlinkCallback(bytes32,int256)": {
        "notice": "The fulfill method from requests created by this contract"
      },
      "constructor": "Deploy the contract with a specified address for the LINK and Oracle contract addresses",
      "createServiceAgreement(uint256,address[],bytes32[],uint256[])": {
        "notice": "Allows the owner of the contract to create new service agreements with multiple oracles. Each oracle will have their own Job ID and can have their own payment amount."
      },
      "deleteServiceAgreement(bytes32)": {
        "notice": "Deletes a service agreement from storage"
      },
      "getChainlinkToken()": {
        "notice": "Returns the address of the LINK token"
      },
      "getServiceAgreement(bytes32)": {
        "notice": "This is a helper function to retrieve the details of a service agreement by its given service agreement ID."
      },
      "onTokenTransfer(address,uint256,bytes)": {
        "notice": "Called when LINK is sent to the contract via `transferAndCall`"
      },
      "oracleRequest(address,uint256,bytes32,address,bytes4,uint256,uint256,bytes)": {
        "notice": "Creates the Chainlink request"
      },
      "withdrawLink()": {
        "notice": "Allows the owner to withdraw any LINK balance on the contract"
      }
    }
  }
}